S01600006E6F77795F737465726F776E696B2E73726563FC
S11300000C94AB000C94C8000C94C8000C94C80069
S11300100C94C8000C94C8000C94C8000C94C8003C
S11300200C94C8000C94C8000C947E040C94C80072
S11300300C94C8000C9460050C9493050C94C800AF
S11300400C94C8000C94C8000C94C8000C94C8000C
S11300500C94C8006E616E00696E660000407A10F0
S1130060F35A00A0724E18090010A5D4E80000E865
S11300707648170000E40B54020000CA9A3B0000C3
S113008000E1F505000080969800000040420F0052
S11300900000A08601000000102700000000E80313
S11300A0000000006400000000000A0000000000DE
S11300B00100000000002C76D888DC674F0823DF9D
S11300C0C1DFAE59E1B1B796E5E3E453C63AE65170
S11300D0997696E8E6C28426EB898C9B62ED407C97
S11300E06FFCEFBC9C9F40F2BAA56FA5F490055A33
S11300F02AF75C936B6CF9676DC11BFCE0E40D4758
S1130100FEF520E6B500D0ED902E0300943577057A
S11301100080841E080000204E0A000000C80C3332
S11301203333330F986E12831141EF8D2114893BC1
S1130130E65516CFFEE6DB18D1844B381BF77C1D41
S1130140901DA4BBE424203284725E228100C9F194
S113015024ECA1E53D2711241FBECFE5D8E0DEBF86
S1130160CDBF10E0A0E6B0E0ECEDF6E102C00590F2
S11301700D92AA3EB107D9F723E0AAEEB0E001C080
S11301801D92AA3EB207E1F70E9409010C946C0B80
S11301900C940000CF93DF93CDB7DEB7AE014B5F75
S11301A05F4FFA0161917191AF018EE892E00E9474
S11301B0F20AEEE8F2E0DF010D900020E9F79D017C
S11301C02150310908C081918A3029F480E690E0F9
S11301D00E94050603C0E217F307A9F78EE892E030
S11301E00E940506DF91CF910895899A089588E0C9
S11301F090E00E94BA0562E381E00E94B3040E9489
S113020072040E9486030E94170380B78B7F80BF0D
S113021008950E94F50078940E94F70087E690E024
S11302209F938F930E94CA000E9473040F900F90B3
S113023080918C0290E00E945E030E94A4030E94BD
S113024026010E94DD020E94A002F2CF4091E60343
S11302505091E7036091E8037091E9038091EA000B
S11302609091EB00A091EC00B091ED0084179507FC
S1130270A607B707B8F483E00E9459048091E60307
S11302809091E703A091E803B091E9038C599F4F43
S1130290AF4FBF4F8093EA009093EB00A093EC0024
S11302A0B093ED000895379897B1987F8770892BA4
S11302B087B9379A0895369A3699FECF84B195B1A5
S11302C008950E9453010E945B01089510920B014E
S11302D010920C0110920D0110920E0110920A015D
S11302E01092090186EF90E00E941F0508950F9374
S11302F01F93CF93DF931616170654F48C01EC0169
S1130300060F171F89910E94F005C017D107D1F776
S1130310DF91CF911F910F910895E4EDF2E08EEDFE
S1130320808386E08183A3E0B1E0E6EDF2E02CED8A
S113033032E08D918193E217F307D9F768E070E01A
S113034084ED92E00E9477010895EBEFF0E0808164
S1130350918199279093D7038093D6036281738107
S11303606093D2027093D302468157814093D8039D
S11303705093D903248135812093D4033093D5033A
S11303807F936F935F934F939F938F933F932F9399
S11303908EE890E09F938F930E94CA008DB79EB71A
S11303A00A960FB6F8949EBF0FBE8DBF8091D403FA
S11303B09091D503892B39F00E9435038091D6039F
S11303C00E94560302C00E9429038091D803909191
S11303D0D903892B11F0949A089594980895CF9293
S11303E0DF92EF92FF920F931F9340910B01509174
S11303F00C0160910D0170910E01411551056105CB
S11304007105B9F480930A0181E090E0A0E0B0E0C6
S113041080930B0190930C01A0930D01B0930E01F6
S113042048EC50E060E070E086EF90E00E94E70462
S113043080C090910A019E3E09F476C09E3F09F463
S11304406EC09E3D09F073C04130510561057105D0
S113045019F58093090142E050E060E070E04093B8
S11304600B0150930C0160930D0170930E018830C1
S113047051F00E9466018AEA90E09F938F930E9454
S1130480CA000F900F9048EC50E060E070E086EFF7
S113049090E00E94E7044DC00091090110E020E0C3
S11304A030E06A017B0192E0C91AD108E108F10841
S11304B0C016D106E206F30638F5FA01E750FF4FFD
S11304C08083DB01CA010196A11DB11D80930B013C
S11304D090930C01A0930D01B0930E01415051096A
S11304E061097109041715072607370721F40E94CB
S11304F066010E94A50148EC50E060E070E086EFE0
S113050090E00E94E70415C00E9466018AEB90E027
S11305109F938F930E94CA000F900F900AC00E946D
S11305208D010E94660105C00E94660102C00E94FE
S113053066011F910F91FF90EF90DF90CF90089587
S11305404091E6035091E7036091E8037091E90359
S11305508091F2009091F300A091F400B091F50025
S113056084179507A607B70738F50E94D0050E949F
S1130570EF0186EF90E00E94FF04892B51F00E9466
S1130580660188ED90E09F938F930E94CA000F90BC
S11305900F908091E6039091E703A091E803B09156
S11305A0E9030596A11DB11D8093F2009093F30019
S11305B0A093F400B093F50008954091E6035091A0
S11305C0E7036091E8037091E9038091EE00909154
S11305D0EF00A091F000B091F10084179507A607F1
S11305E0B70720F5E3E0F1E08BE790E091838083A7
S11305F081E491E0938382838FEF9FE095838483EA
S11306000E948D018091E6039091E703A091E80395
S1130610B091E90388539F4FAF4FBF4F8093EE00D3
S11306209093EF00A093F000B093F10008958C9A9A
S113063086EF90E00E94DF0408958EED93E00E941F
S1130640DF0481E08093DA03949815BC8F9A97981D
S1130650089515BC979813BCEAEDF3E0808181837B
S113066081E0808381E090E008958091DA03813015
S1130670D1F485B5806285BD85B5806485BD85B5B9
S1130680826085BDEAEDF3E08081818382E080832E
S113069048EE53E060E070E08EED93E00E94E704E2
S11306A081E090E0089580E090E008959091DA036D
S11306B0923019F483BD8093DD0308954AEF50E02E
S11306C060E070E08FE091E00E942905892B59F0E9
S11306D08091DA03813031F0823029F48091DD0396
S11306E083BD089513BC0895FC01208131816230DB
S11306F058F0329691E041915191240F351F36956F
S113070027959F5F6913F7CFC9010895E8E5F1E0E4
S113071020E831E081EF91E0819391932E173F0718
S1130720D9F7E7E3F1E085E591E0119211928E1794
S11307309F07D9F7EFE1F1E083E391E01192119281
S11307408E179F07D9F70895CF93DF934091E6035F
S11307505091E7036091E8037091E90380911801D7
S113076090911901A0911A01B0911B01841795076A
S1130770A607B70708F09AC08091E6039091E703B3
S1130780A091E803B091E9034496A11DB11D8093A3
S1130790180190931901A0931A01B0931B0180E0F2
S11307A00E9461019C019093830180938201909146
S11307B08401E92FF0E0EE0FFF1FE85AFE4F31836A
S11307C020839F5F9093840182E00E9461018032C4
S11307D0910530F04F97909336018093350104C012
S11307E01092360110923501E0915701F0E0EE0FBE
S11307F0FF1FE95CFE4F8091350190913601918392
S1130800808381E00E94610190931D0180931C010B
S1130810C0911E01EC2FF0E0EE0FFF1FE15EFE4FD2
S113082091838083D0915701DF5FD0935701CF5FCD
S1130830C0931E0164E188E591E00E9474039093E3
S11308408101809380016FE087E391E00E9474034B
S113085090935601809355016AE08FE191E00E94E4
S11308607403909334018093330180911401909127
S11308701501A0911601B09117010196A11DB11D9A
S11308808093140190931501A0931601B09317015E
S113089080918401843111F410928401CA3011F4DE
S11308A010921E01DF3011F410925701DF91CF91A5
S11308B00895833018F4813040F00CC0833079F40B
S11308C080918001909181010895809155019091CA
S11308D0560108958091330190913401089580E088
S11308E090E0089508950E941D030E94860381E00C
S11308F090E090938B0280938A0208951F920F9246
S11309000FB60F9211242F938F939F93AF93BF939E
S1130910EF93FF93E4EEF3E080819181C29691839B
S1130920808380819181883E934088F08281938185
S1130930A481B5810196A11DB11D82839383A483F3
S1130940B58380819181885E934091838083FF91F8
S1130950EF91BF91AF919F918F912F910F900FBE07
S11309600F901F90189593B7986093BF6CBF823017
S113097099F028F4882341F0813051F019C0833074
S113098079F0843089F014C083B7816083BF13C0C9
S113099083B7826083BF0FC083B7836083BF0BC0FC
S11309A083B7846083BF07C083B7856083BF03C0F8
S11309B083B7816083BF89B7826089BF089523E0CC
S11309C0FC012483108211821282138208950F93F2
S11309D01F9321E0FC0124830091E6031091E703B7
S11309E02091E8033091E903400F511F621F731FE8
S11309F040835183628373831F910F910895FC0197
S1130A0084818130B1F48091E6039091E703A09151
S1130A10E803B091E90340815181628173814817F1
S1130A2059076A077B0740F482E0848381E090E001
S1130A3008958FEF9FEF089580E090E0089521E0FE
S1130A4030E0FC018481833011F020E030E0C90102
S1130A500895CF92DF92EF92FF920F931F93CF935B
S1130A60DF93EC016A017B018C81811106C083E074
S1130A708C83188219821A821B82CE010E94FF0481
S1130A808C01019731F4B701A601CE010E94E7045D
S1130A900DC08C81833041F4B701A601CE010E94C0
S1130AA0E70400E010E002C000E010E0C801DF91BC
S1130AB0CF911F910F91FF90EF90DF90CF90089509
S1130AC01F920F920FB60F9211242F933F934F93BF
S1130AD05F938F939F93EF93FF932BB13CB1287156
S1130AE08091870190E001968F7799274091860144
S1130AF050E08417950739F080938701FC01E6578D
S1130B00FE4F308301C022E020938501FF91EF91D5
S1130B109F918F915F914F913F912F910F900FBEB5
S1130B200F901F9018951F920F920FB60F921124D9
S1130B308F939F93EF93FF93909189018091880104
S1130B40981771F08091880190E001968F7799272A
S1130B5080938801FC01E65FFD4F80818CB901C060
S1130B605598FF91EF919F918F910F900FBE0F9029
S1130B701F901895F8941092890110928801109290
S1130B80870110928601789499231CF422E02BB9F2
S1130B909F7790BD89B988E98AB986E880BD0895B0
S1130BA0F8949091870180918601981304C07894F9
S1130BB080E091E0089578948091860190E0019618
S1130BC08F77992780938601FC01E657FE4F208199
S1130BD08091850190E0982F8827820F911D0895B8
S1130BE04091890150E04F5F5F4F4F775527209127
S1130BF0880130E042175307D1F3FA01E65FFD4F55
S1130C00808340938901559A0895CF93DF93EC0133
S1130C108881882331F021960E94F0058991811101
S1130C20FBCFDF91CF910895A0E1B0E0EAE1F6E0D7
S1130C300C9491097C011B016A01FC011782168244
S1130C40838181FF44C39E012F5F3F4F3901F70128
S1130C509381F10193FD859193FF81911F01882375
S1130C6009F431C3853239F493FD859193FF819161
S1130C701F01853239F4B70190E00E94B60A56018B
S1130C806501E5CF10E0512C912CFFE1F915D8F066
S1130C908B3279F038F4803279F08332A1F4F92D73
S1130CA0F0612EC08D3261F0803369F4292D21600A
S1130CB02DC0392D3260932E892D8460982E2AC040
S1130CC0E92DE86015C097FC2DC020ED280F2A30CF
S1130CD088F496FE06C03AE0139F200D1124122FCB
S1130CE019C08AE0589E200D1124522EE92DE0628D
S1130CF09E2E10C08E3231F496FCE5C2F92DF064BC
S1130D009F2E08C08C3621F4292D2068922E02C013
S1130D10883641F4F10193FD859193FF81911F0180
S1130D208111B3CF9BEB980F933020F4992D9061F0
S1130D30805E07C09BE9980F933008F066C1992D37
S1130D409F7E96FF16E09F73992E853619F4906462
S1130D50992E08C0863621F4392F3068932E02C0AC
S1130D601111115097FE07C01C3350F444244394CE
S1130D70410E27E00BC0183038F027E017E005C01B
S1130D8027E09CE3492E02C0212F412C560184E028
S1130D90A80EB11CF6016081718182819381042DBA
S1130DA0A3010E94C8096C01F981FC87F0FF02C00D
S1130DB0F3FF06C091FC06C092FE06C000E205C027
S1130DC00DE203C00BE201C000E08C858C7019F0C9
S1130DD001115AC29BC297FE10C04C0CFC85F4FF53
S1130DE004C08A81813309F44A94141474F528E008
S1130DF0241578F588E0482E2CC096FC2AC0812F53
S1130E0090E08C159D059CF03CEFC3163FEFD30694
S1130E1074F0892D8068982E0AC0E2E0F0E0EC0FAF
S1130E20FD1FE10FF11D8081803319F41150111160
S1130E30F4CF97FE0EC044244394410E812F90E0DA
S1130E40C816D9062CF41C1904C04424439401C0C8
S1130E5010E097FE06C01C141D0434F4C60101966C
S1130E6005C085E090E002C081E090E001110196A8
S1130E70112331F0212F30E02F5F3F4F820F931F5A
S1130E80252D30E08217930714F4581A01C0512C11
S1130E90892D897049F4552039F0B70180E290E03A
S1130EA00E94B60A5A94F7CF002329F0B701802F85
S1130EB090E00E94B60A93FC09C0552039F0B701AE
S1130EC080E390E00E94B60A5A94F7CF97FE4CC094
S1130ED04601D7FE02C0812C912CC60188199909BC
S1130EE0F301E80FF91FFE87ED87960124193109F4
S1130EF0388B2F87012F10E01195019511093FEFD1
S1130F008316930629F4B7018EE290E00E94B60A94
S1130F10C814D9044CF08F8598898815990524F450
S1130F20ED85FE85818101C080E3F1E08F1A91088F
S1130F302D853E852F5F3F4F3E872D878016910676
S1130F402CF0B70190E00E94B60AD9CFC814D90496
S1130F5041F49A81963320F4953319F43C8534FF97
S1130F6081E3B70190E04EC08A81813319F09C85FA
S1130F709F7E9C87B70190E00E94B60A111105C0BC
S1130F8094FC18C085E690E017C0B7018EE290E0AB
S1130F900E94B60A1E5F82E001E0080FF301E80F29
S1130FA0F11D8081B70190E00E94B60A802F0113E1
S1130FB0F3CFE6CF85E490E0B7010E94B60AD7FCF0
S1130FC006C0C114D10441F4EC85E4FF05C0D194FA
S1130FD0C194D1088DE201C08BE2B70190E00E9478
S1130FE0B60A80E32AE0C216D1042CF08F5FFAE03F
S1130FF0CF1AD108F7CFB70190E00E94B60AB70123
S1131000C601C0960E94B60A54C1833631F08337B4
S113101079F0833509F056C020C0560132E0A30EA2
S1131020B11CF6018081898301E010E0630112C0E4
S11310305601F2E0AF0EB11CF601C080D18096FEDD
S113104003C0612F70E002C06FEF7FEFC6010E9402
S1131050AB0A8C01F92DFF7714C0560122E0A20ED1
S1131060B11CF601C080D18096FE03C0612F70E0F0
S113107002C06FEF7FEFC6010E94A00A8C01F92D18
S1131080F0689F2EF3FD1AC0852D90E0081719070C
S1131090A8F4B70180E290E00E94B60A5A94F4CF13
S11310A0F60197FC859197FE81916F01B70190E05D
S11310B00E94B60A51105A940150110901151105E4
S11310C079F7F7C0843611F0893661F5560197FE39
S11310D009C024E0A20EB11CF601608171818281F5
S11310E093810AC0F2E0AF0EB11CF60160817181F8
S11310F0072E000C880B990BF92DFF769F2E97FF76
S113110009C090958095709561957F4F8F4F9F4F43
S1131110F0689F2E2AE030E0A3010E940E0BC82E37
S1131120C6183FC0092D853721F40F7E2AE030E030
S11311301DC0097F8F3691F018F4883559F0C3C06B
S1131140803719F0883711F0BEC0006104FF09C070
S1131150046007C094FE08C0066006C028E030E0C2
S113116005C020E130E002C020E132E0560107FF73
S113117009C084E0A80EB11CF601608171818281EE
S1131180938108C0F2E0AF0EB11CF6016081718159
S113119080E090E0A3010E940E0BC82EC6180F77C2
S11311A0902E96FE0BC0092D0E7FC11650F494FEAE
S11311B00AC092FC08C0092D0E7E05C0DC2C092D46
S11311C003C0DC2C01C0D12E04FF0DC0FE01EC0DC8
S11311D0F11D8081803311F4097E09C002FF06C02D
S11311E0D394D39404C0802F867809F0D39403FD5C
S11311F011C000FF06C01C2DD51480F4150D1D1957
S11312000DC0D51458F4B70180E290E00E94B60AEC
S1131210D394F7CFD51410F45D1801C0512C04FFFA
S113122010C0B70180E390E00E94B60A02FF17C025
S113123001FD03C088E790E002C088E590E0B701B3
S11312400CC0802F867859F001FF02C08BE201C0E8
S113125080E207FD8DE2B70190E00E94B60AC11654
S113126038F4B70180E390E00E94B60A1150F7CF3A
S1131270CA94F301EC0DF11D8081B70190E00E9446
S1131280B60AC110F5CF15C0F4E0F51560F584E099
S1131290581A93FE1FC0011127C02C8523FF2AC0B2
S11312A004E510E0392D3071932EF80184918111F9
S11312B024C0552009F4E4CCB70180E290E00E94F8
S11312C0B60A5A94F6CFF7018681978126C08FEF2C
S11312D09FEF23C0B70180E290E00E94B60A5A94BF
S11312E05110F8CFD8CF512CB701802F90E00E9435
S11312F0B60AD3CF08E510E0D5CF91108052B701DC
S113130090E00E94B60A0F5F1F4FCFCF23E0251550
S113131010F483E0BDCF512CC0CF6096E2E10C9471
S1131320AD092F923F924F925F926F927F928F926C
S11313309F92AF92BF92CF92DF92EF92FF920F9360
S11313401F93CF93DF93CDB7DEB7CA1BDB0B0FB66A
S1131350F894DEBF0FBECDBF09942A883988488827
S11313605F846E847D848C849B84AA84B984C884BD
S1131370DF80EE80FD800C811B81AA81B981CE0FB4
S1131380D11D0FB6F894DEBF0FBECDBFED01089599
S1131390283008F027E03327DA01990F311D87FD43
S11313A0916000966105710539F432602E5F3D93BA
S11313B030E32A95E1F708959F3F30F080387105B6
S11313C0610509F03C5F3C5F3D93913008F0806813
S11313D0911DDF93CF931F930F93FF92EF92192FD9
S11313E0987F9695E92F96959695E90FFF27EA54ED
S11313F0FF4F99273327EE24FF24A701E701059027
S11314000894079428F4360FE71EF81E491F511D4F
S1131410660F771F881F991F0694A1F705900794FC
S113142028F4E70EF81E491F561FC11D770F881FA9
S1131430991F661F0694A1F70590079428F4F80EE7
S1131440491F561FC71FD11D880F991F661F771F7D
S11314500694A1F70590079420F4490F561FC71F5F
S1131460D81F990F661F771F881F0694A9F78491C8
S11314701095177041F0D695C79557954795F794F1
S1131480E7941A95C1F7ECE5F0E06894159015918E
S113149035916591959105907FE27395E118F10A74
S11314A0430B560BC90BD009C0F7E10CF11E431FC7
S11314B0561FC91FD01D7EF4703311F48A95E6CFF0
S11314C0E894015030F0080F0AF40027021708F4DA
S11314D0202F2395022F7A3328F079E37D932A95E0
S11314E0E9F710C07D932A9589F606949795679538
S11314F0379517951794E118F10A430B560BC90B4E
S1131500D00998F023957E9173957A3308F070E3AF
S11315107C932013B8F77E9170617D9330F08395AE
S113152071E37D9370E32A95E1F71124EF90FF9026
S11315300F911F91CF91DF91992787FD9095089581
S1131540FC010590615070400110D8F7809590958A
S11315508E0F9F1F0895FC0161507040019001108F
S1131560D8F7809590958E0F9F1F08950F931F9322
S1131570CF93DF93FB01238121FD03C08FEF9FEF06
S11315802CC022FF16C04681578124813581421721
S1131590530744F4A081B1819D012F5F3F4F3183F4
S11315A020838C93268137812F5F3F4F3783268397
S11315B014C08B01EC01FB010084F185E02D099539
S11315C0892BE1F6D80116968D919C911797019677
S11315D017969C938E931697CE01DF91CF911F910E
S11315E00F910895AEE0B0E0E8EFFAE00C949F09A3
S11315F08C0186E08C831A8309838FEF9FE79E8397
S11316008D83CE0101960E941406EF81F885E00FC8
S1131610F11F10822E96E4E00C94BB09FA01AA276C
S1131620283051F1203181F1E8946F936E7F6E5F21
S11316307F4F8F4F9F4FAF4FB1E03ED0B4E03CD0CF
S1131640670F781F891F9A1FA11D680F791F8A1FB2
S1131650911DA11D6A0F711D811D911DA11D20D019
S113166009F468943F912AE0269F11243019305DD3
S11316703193DEF6CF010895462F4770405D4193C4
S1131680B3E00FD0C9F7F6CF462F4F70405D4A3311
S113169018F0495D31FD4052419302D0A9F7EACFD9
S11316A0B4E0A6959795879577956795BA95C9F708
S11316B000976105710508959B01AC010A2E0694FB
S11316C05795479537952795BA95C9F7620F731FB4
S10F16D0841F951FA01D0895F894FFCFFF
S11316DC0A0D41543A20002F2D2D2D2D2D2D2D2D5D
S11316EC2D2D2D53544152542053595354454D2DA3
S11316FC2D2D2D2D2D2D2D2D2D2D2D2F0A006D6FD6
S113170C743A2025642025642C20736572766F3A14
S113171C202564202564200A0D004652414D4520A5
S113172C424144204C454E0A0D0041544D4547411D
S113173C205245434549564520554E4B4E4F572054
S113174C4552524F520A0D007654696D65724361CD
S10D175C6C6C6261636B0A0D0000FF
S9030000FC
