:100000000C94AB000C94BD000C94BD000C94BD008E
:100010000C94BD000C94BD000C94BD000C94BD006C
:100020000C94BD000C94BD000C9407030C94BD000F
:100030000C94BD000C94DF030C9412040C94BD00CE
:100040000C94BD000C94BD000C94BD000C94BD003C
:100050000C94BD006E616E00696E660000407A10FF
:10006000F35A00A0724E18090010A5D4E80000E869
:100070007648170000E40B54020000CA9A3B0000C7
:1000800000E1F505000080969800000040420F0056
:100090000000A08601000000102700000000E80317
:1000A000000000006400000000000A0000000000E2
:1000B0000100000000002C76D888DC674F0823DFA1
:1000C000C1DFAE59E1B1B796E5E3E453C63AE65174
:1000D000997696E8E6C28426EB898C9B62ED407C9B
:1000E0006FFCEFBC9C9F40F2BAA56FA5F490055A37
:1000F0002AF75C936B6CF9676DC11BFCE0E40D475C
:10010000FEF520E6B500D0ED902E0300943577057E
:100110000080841E080000204E0A000000C80C3336
:100120003333330F986E12831141EF8D2114893BC5
:10013000E65516CFFEE6DB18D1844B381BF77C1D45
:10014000901DA4BBE424203284725E228100C9F198
:1001500024ECA1E53D2711241FBECFE5D8E0DEBF8A
:10016000CDBF22E0A0E6B0E001C01D92AA30B207E8
:10017000E1F70E9416010C94370B0C94000040919B
:100180000602509107026091080270910902809165
:10019000640090916500A0916600B091670084179B
:1001A0009507A607B70778F580E690E0909363007F
:1001B0008093620080E00E94A2029093610080938D
:1001C0006000E0916200F091630080810E944F0422
:1001D000E0916200F091630081810E944F04809160
:1001E000640090916500A0916600B09167008C5901
:1001F0009F4FAF4FBF4F8093640090936500A093D3
:100200006600B09367000895899A089588E090E0A9
:100210000E94390462E381E00E943C030E94F802DC
:100220000E94A90180B78B7F80BF089580E00E9463
:10023000BB020E94040178940E9406010E94F90208
:100240008091EE0190E00E947D018091EF0190E0AD
:100250000E94E6020E94C7010E9431010E94BF0075
:10026000EFCF409106025091070260910802709111
:1002700009028091680090916900A0916A00B09194
:100280006B0084179507A607B707B8F483E00E94B0
:10029000A2028091060290910702A0910802B091FB
:1002A00009028C599F4FAF4FBF4F809368009093C6
:1002B0006900A0936A00B0936B000895379897B1D6
:1002C000987F8770892B87B9379A0895369A36991F
:1002D000FECF84B195B108950E945E010E9466012F
:1002E000089584EF91E00E94680381E08093F0011B
:1002F000949815BC8F9A979A0895CF93C82F46E982
:1003000050E060E070E08CE690E00E94A803892B4A
:1003100061F08091F001823019F0843019F005C04D
:10032000C3BD03C082E08093F001CF910895FC012A
:1003300020813181623058F0329691E041915191A3
:10034000240F351F369527959F5F6913F7CFC90195
:100350000895E5EBF0E02DED30E081EF91E0819341
:1003600091932E173F07D9F7E4E9F0E082EB90E094
:10037000119211928E179F07D9F7ECE7F0E080E910
:1003800090E0119211928E179F07D9F70895CF929E
:10039000DF92EF92FF92CF93DF934091060250914C
:1003A0000702609108027091090280917500909196
:1003B0007600A0917700B091780084179507A60782
:1003C000B70708F0B8C08091060290910702A0918B
:1003D0000802B09109024496A11DB11D80937500D9
:1003E00090937600A0937700B093780080E00E940D
:1003F0006C01EC016091B2007091B30080E090E07C
:100400000E94000521E73DE34AE85EE30E948E0575
:100410006B017C01BE0180E090E00E9400059B0121
:10042000AC01C701B6010E9465040E94D10470931B
:10043000E0006093DF002091E100E22FF0E0EE0F9A
:10044000FF1FEB54FF4F7183608381E0820F809325
:10045000E10082E00E946C018032910530F04F97FC
:10046000909393008093920004C010929300109296
:100470009200E091B400F0E0EE0FFF1FEC56FF4F4A
:1004800080919200909193009183808381E00E94FB
:100490006C0190937A0080937900C0917B00EC2FDF
:1004A000F0E0EE0FFF1FE458FF4F91838083D0915F
:1004B000B400DF5FD093B400CF5FC0937B0064E1F2
:1004C00085EB90E00E9497019093DE008093DD0021
:1004D0006FE084E990E00E9497019093B3008093CD
:1004E000B2006AE08CE790E00E949701909391003F
:1004F000809390008091710090917200A0917300A0
:10050000B09174000196A11DB11D8093710090936C
:100510007200A0937300B09374008091E100843165
:1005200011F41092E100CA3011F410927B00DF3018
:1005300011F41092B400DF91CF91FF90EF90DF9013
:10054000CF900895833018F4813040F00CC0833090
:1005500079F48091DD009091DE0008958091B200E1
:100560009091B3000895809190009091910008952A
:1005700080E090E00895CF93DF932FE13EE437BD14
:1005800026BD81B3806381BB19BC18BC1BBC1ABCDF
:100590008FB582608FBD8EB588618EBD8FB5806846
:1005A0008FBD8EB582608EBD3BBD2ABD96981BBCAB
:1005B0001ABCCAEFD1E081E088831B828EEF91E004
:1005C0000E9468031986DF91CF910895CF93DF933E
:1005D000EC014BE450E060E070E082EE90E00E94BD
:1005E000A803892B11F0DBBDCABDDF91CF9108951F
:1005F00008950E94710180E00E94BB020E94A9013F
:1006000081E090E09093ED018093EC0108951F92BA
:100610000F920FB60F9211242F938F939F93AF9346
:10062000BF93EF93FF93E4E0F2E080819181C29663
:100630009183808380819181883E934088F082817C
:100640009381A481B5810196A11DB11D82839383FD
:10065000A483B58380819181885E93409183808358
:10066000FF91EF91BF91AF919F918F912F910F903B
:100670000FBE0F901F90189593B7986093BF6CBFF3
:10068000823099F028F4882341F0813051F019C06C
:10069000833079F0843089F014C083B7816083BFE0
:1006A00013C083B7826083BF0FC083B7836083BFEB
:1006B0000BC083B7846083BF07C083B7856083BFE7
:1006C00003C083B7816083BF89B7826089BF089503
:1006D00023E0FC0124831082118212821382089588
:1006E0000F931F9321E0FC012483009106021091D7
:1006F00007022091080230910902400F511F621F2A
:10070000731F40835183628373831F910F910895F8
:10071000FC0184818130B1F480910602909107023E
:10072000A0910802B09109024081518162817381D8
:10073000481759076A077B0740F482E0848381E009
:1007400090E008958FEF9FEF089580E090E0089586
:10075000CF92DF92EF92FF920F931F93CF93DF938D
:10076000EC016A017B018C81811106C083E08C83DE
:10077000188219821A821B82CE010E9488038C0182
:10078000019731F4B701A601CE010E9470030DC09C
:100790008C81833041F4B701A601CE010E94700321
:1007A00000E010E002C000E010E0C801DF91CF914E
:1007B0001F910F91FF90EF90DF90CF9008951F92BF
:1007C0000F920FB60F9211242F933F934F935F9385
:1007D0008F939F93EF93FF932BB13CB1287180913E
:1007E000E90090E001968F7799274091E80050E06A
:1007F0008417950739F08093E900FC01E451FF4F1D
:10080000308301C022E02093E700FF91EF919F9198
:100810008F915F914F913F912F910F900FBE0F904D
:100820001F9018951F920F920FB60F9211248F935D
:100830009F93EF93FF939091EB008091EA009817BC
:1008400071F08091EA0090E001968F77992780936C
:10085000EA00FC01E459FE4F80818CB901C0559833
:10086000FF91EF919F918F910F900FBE0F901F906E
:100870001895F8941092EB001092EA001092E9009B
:100880001092E800789499231CF422E02BB99F770A
:1008900090BD89B988E98AB986E880BD08954091FC
:1008A000EB0050E04F5F5F4F4F7755272091EA00F4
:1008B00030E042175307D1F3FA01E459FE4F808329
:1008C0004093EB00559A08955058BB27AA270E94E1
:1008D0007C040C9454050E94460538F00E944D0596
:1008E00020F039F49F3F19F426F40C9443050EF4DC
:1008F000E095E7FB0C943D05E92F0E94650558F350
:10090000BA17620773078407950720F079F4A6F5F4
:100910000C9487050EF4E0950B2EBA2FA02D0B0139
:10092000B90190010C01CA01A0011124FF27591B34
:1009300099F0593F50F4503E68F11A16F040A22F3A
:10094000232F342F4427585FF3CF469537952795AB
:10095000A795F0405395C9F77EF41F16BA0B620BAA
:10096000730B840BBAF09150A1F0FF0FBB1F661FF1
:10097000771F881FC2F70EC0BA0F621F731F841F34
:1009800048F4879577956795B795F7959E3F08F05A
:10099000B0CF9395880F08F09927EE0F979587951C
:1009A00008950E946D0588F09F5798F0B92F9927F8
:1009B000B751B0F0E1F0660F771F881F991F1AF04A
:1009C000BA95C9F714C0B13091F00E948705B1E023
:1009D00008950C948705672F782F8827B85F39F022
:1009E000B93FCCF3869577956795B395D9F73EF4E3
:1009F00090958095709561957F4F8F4F9F4F08958B
:100A0000E89409C097FB3EF49095809570956195A8
:100A10007F4F8F4F9F4F9923A9F0F92F96E9BB275E
:100A20009395F695879577956795B795F111F8CFDA
:100A3000FAF4BB0F11F460FF1BC06F5F7F4F8F4F45
:100A40009F4F16C0882311F096E911C0772321F03B
:100A50009EE8872F762F05C0662371F096E8862FD3
:100A600070E060E02AF09A95660F771F881FDAF72A
:100A7000880F9695879597F9089597F99F6780E86D
:100A800070E060E008959FEF80EC089500240A94E0
:100A90001616170618060906089500240A94121659
:100AA0001306140605060895092E0394000C11F48C
:100AB000882352F0BB0F40F4BF2B11F460FF04C039
:100AC0006F5F7F4F8F4F9F4F089557FD9058440F92
:100AD000551F59F05F3F71F04795880F97FB991F9D
:100AE00061F09F3F79F0879508951216130614065A
:100AF000551FF2CF4695F1DF08C0161617061806E7
:100B0000991FF1CF86957105610508940895E894C1
:100B1000BB2766277727CB0197F908950E94A10587
:100B20000C9454050E94460538F00E944D0520F0B3
:100B3000952311F00C943D050C94430511240C945D
:100B400088050E94650570F3959FC1F3950F50E0ED
:100B5000551F629FF001729FBB27F00DB11D639F6F
:100B6000AA27F00DB11DAA1F649F6627B00DA11D15
:100B7000661F829F2227B00DA11D621F739FB00DBB
:100B8000A11D621F839FA00D611D221F749F33272B
:100B9000A00D611D231F849F600D211D822F762FC4
:100BA0006A2F11249F5750409AF0F1F088234AF0A1
:100BB000EE0FFF1FBB1F661F771F881F915050400D
:100BC000A9F79E3F510580F00C943D050C948805D3
:100BD0005F3FE4F3983ED4F3869577956795B79594
:100BE000F795E7959F5FC1F7FE2B880F911D9695AE
:100BF000879597F90895A0E1B0E0E1E0F6E00C9464
:100C000078097C011B016A01FC011782168283812D
:100C100081FF44C39E012F5F3F4F3901F70193814C
:100C2000F10193FD859193FF81911F01882309F4C0
:100C300031C3853239F493FD859193FF81911F0172
:100C4000853239F4B70190E00E949D0A5601650192
:100C5000E5CF10E0512C912CFFE1F915D8F08B3243
:100C600079F038F4803279F08332A1F4F92DF06113
:100C70002EC08D3261F0803369F4292D21602DC0A2
:100C8000392D3260932E892D8460982E2AC0E92D4B
:100C9000E86015C097FC2DC020ED280F2A3088F49D
:100CA00096FE06C03AE0139F200D1124122F19C0A2
:100CB0008AE0589E200D1124522EE92DE0629E2ECE
:100CC00010C08E3231F496FCE5C2F92DF0649F2EEF
:100CD00008C08C3621F4292D2068922E02C0883657
:100CE00041F4F10193FD859193FF81911F018111E1
:100CF000B3CF9BEB980F933020F4992D9061805ED9
:100D000007C09BE9980F933008F066C1992D9F7E2C
:100D100096FF16E09F73992E853619F49064992EEC
:100D200008C0863621F4392F3068932E02C0111185
:100D3000115097FE07C01C3350F444244394410ED5
:100D400027E00BC0183038F027E017E005C027E097
:100D50009CE3492E02C0212F412C560184E0A80EAD
:100D6000B11CF6016081718182819381042DA30100
:100D70000E94AF096C01F981FC87F0FF02C0F3FF0C
:100D800006C091FC06C092FE06C000E205C00DE25E
:100D900003C00BE201C000E08C858C7019F00111DA
:100DA0005AC29BC297FE10C04C0CFC85F4FF04C0D5
:100DB0008A81813309F44A94141474F528E02415C7
:100DC00078F588E0482E2CC096FC2AC0812F90E050
:100DD0008C159D059CF03CEFC3163FEFD30674F0D5
:100DE000892D8068982E0AC0E2E0F0E0EC0FFD1F2C
:100DF000E10FF11D8081803319F411501111F4CFEE
:100E000097FE0EC044244394410E812F90E0C816F3
:100E1000D9062CF41C1904C04424439401C010E0EA
:100E200097FE06C01C141D0434F4C601019605C0CB
:100E300085E090E002C081E090E00111019611236D
:100E400031F0212F30E02F5F3F4F820F931F252D70
:100E500030E08217930714F4581A01C0512C892DE1
:100E6000897049F4552039F0B70180E290E00E9482
:100E70009D0A5A94F7CF002329F0B701802F90E004
:100E80000E949D0A93FC09C0552039F0B70180E308
:100E900090E00E949D0A5A94F7CF97FE4CC04601FD
:100EA000D7FE02C0812C912CC60188199909F30143
:100EB000E80FF91FFE87ED87960124193109388B59
:100EC0002F87012F10E01195019511093FEF83162F
:100ED000930629F4B7018EE290E00E949D0AC8149F
:100EE000D9044CF08F8598898815990524F4ED85EF
:100EF000FE85818101C080E3F1E08F1A91082D8584
:100F00003E852F5F3F4F3E872D87801691062CF040
:100F1000B70190E00E949D0AD9CFC814D90441F4CA
:100F20009A81963320F4953319F43C8534FF81E39C
:100F3000B70190E04EC08A81813319F09C859F7E75
:100F40009C87B70190E00E949D0A111105C094FC96
:100F500018C085E690E017C0B7018EE290E00E94CD
:100F60009D0A1E5F82E001E0080FF301E80FF11D0A
:100F70008081B70190E00E949D0A802F0113F3CF7A
:100F8000E6CF85E490E0B7010E949D0AD7FC06C039
:100F9000C114D10441F4EC85E4FF05C0D194C1949F
:100FA000D1088DE201C08BE2B70190E00E949D0A5A
:100FB00080E32AE0C216D1042CF08F5FFAE0CF1A4A
:100FC000D108F7CFB70190E00E949D0AB701C60192
:100FD000C0960E949D0A54C1833631F0833779F060
:100FE000833509F056C020C0560132E0A30EB11C73
:100FF000F6018081898301E010E0630112C056018F
:10100000F2E0AF0EB11CF601C080D18096FE03C0A5
:10101000612F70E002C06FEF7FEFC6010E94920A5D
:101020008C01F92DFF7714C0560122E0A20EB11CED
:10103000F601C080D18096FE03C0612F70E002C02F
:101040006FEF7FEFC6010E94870A8C01F92DF068CF
:101050009F2EF3FD1AC0852D90E008171907A8F4FC
:10106000B70180E290E00E949D0A5A94F4CFF60105
:1010700097FC859197FE81916F01B70190E00E94E6
:101080009D0A51105A94015011090115110579F763
:10109000F7C0843611F0893661F5560197FE09C014
:1010A00024E0A20EB11CF6016081718182819381DE
:1010B0000AC0F2E0AF0EB11CF60160817181072E0B
:1010C000000C880B990BF92DFF769F2E97FF09C016
:1010D00090958095709561957F4F8F4F9F4FF068E9
:1010E0009F2E2AE030E0A3010E94D90AC82EC6181C
:1010F0003FC0092D853721F40F7E2AE030E01DC066
:10110000097F8F3691F018F4883559F0C3C08037C5
:1011100019F0883711F0BEC0006104FF09C00460F7
:1011200007C094FE08C0066006C028E030E005C095
:1011300020E130E002C020E132E0560107FF09C0A3
:1011400084E0A80EB11CF6016081718182819381D7
:1011500008C0F2E0AF0EB11CF6016081718180E041
:1011600090E0A3010E94D90AC82EC6180F77902ECE
:1011700096FE0BC0092D0E7FC11650F494FE0AC0D6
:1011800092FC08C0092D0E7E05C0DC2C092D03C081
:10119000DC2C01C0D12E04FF0DC0FE01EC0DF11DB1
:1011A0008081803311F4097E09C002FF06C0D39408
:1011B000D39404C0802F867809F0D39403FD11C026
:1011C00000FF06C01C2DD51480F4150D1D190DC08F
:1011D000D51458F4B70180E290E00E949D0AD394A0
:1011E000F7CFD51410F45D1801C0512C04FF10C0C6
:1011F000B70180E390E00E949D0A02FF17C001FD45
:1012000003C088E790E002C088E590E0B7010CC019
:10121000802F867859F001FF02C08BE201C080E286
:1012200007FD8DE2B70190E00E949D0AC11638F4D7
:10123000B70180E390E00E949D0A1150F7CFCA9455
:10124000F301EC0DF11D8081B70190E00E949D0A31
:10125000C110F5CF15C0F4E0F51560F584E0581A1B
:1012600093FE1FC0011127C02C8523FF2AC004E56F
:1012700010E0392D3071932EF8018491811124C032
:10128000552009F4E4CCB70180E290E00E949D0A69
:101290005A94F6CFF7018681978126C08FEF9FEF92
:1012A00023C0B70180E290E00E949D0A5A94511039
:1012B000F8CFD8CF512CB701802F90E00E949D0A23
:1012C000D3CF08E510E0D5CF91108052B70190E060
:1012D0000E949D0A0F5F1F4FCFCF23E0251510F40A
:1012E00083E0BDCF512CC0CF6096E2E10C9494090D
:1012F0002F923F924F925F926F927F928F929F9226
:10130000AF92BF92CF92DF92EF92FF920F931F9313
:10131000CF93DF93CDB7DEB7CA1BDB0B0FB6F894C4
:10132000DEBF0FBECDBF09942A88398848885F8404
:101330006E847D848C849B84AA84B984C884DF8075
:10134000EE80FD800C811B81AA81B981CE0FD11D59
:101350000FB6F894DEBF0FBECDBFED010895283063
:1013600008F027E03327DA01990F311D87FD9160DE
:1013700000966105710539F432602E5F3D9330E3CC
:101380002A95E1F708959F3F30F080387105610597
:1013900009F03C5F3C5F3D93913008F08068911DFF
:1013A000DF93CF931F930F93FF92EF92192F987FA4
:1013B0009695E92F96959695E90FFF27EA54FF4FEA
:1013C00099273327EE24FF24A701E701059008940D
:1013D000079428F4360FE71EF81E491F511D660FAB
:1013E000771F881F991F0694A1F70590079428F48A
:1013F000E70EF81E491F561FC11D770F881F991F42
:10140000661F0694A1F70590079428F4F80E491F6B
:10141000561FC71FD11D880F991F661F771F06947F
:10142000A1F70590079420F4490F561FC71FD81F36
:10143000990F661F771F881F0694A9F7849110954E
:10144000177041F0D695C79557954795F794E7944F
:101450001A95C1F7ECE5F0E0689415901591359177
:101460006591959105907FE27395E118F10A430B20
:10147000560BC90BD009C0F7E10CF11E431F561FD4
:10148000C91FD01D7EF4703311F48A95E6CFE8941D
:10149000015030F0080F0AF40027021708F4202F3B
:1014A0002395022F7A3328F079E37D932A95E9F783
:1014B00010C07D932A9589F6069497956795379580
:1014C00017951794E118F10A430B560BC90BD00975
:1014D00098F023957E9173957A3308F070E37C93AE
:1014E0002013B8F77E9170617D9330F0839571E39E
:1014F0007D9370E32A95E1F71124EF90FF900F910F
:101500001F91CF91DF91992787FD90950895FC0158
:101510000590615070400110D8F7809590958E0F1E
:101520009F1F0895FC016150704001900110D8F791
:10153000809590958E0F9F1F08950F931F93CF93C3
:10154000DF93FB01238121FD03C08FEF9FEF2CC0B0
:1015500022FF16C0468157812481358142175307E7
:1015600044F4A081B1819D012F5F3F4F31832083DF
:101570008C93268137812F5F3F4F3783268314C09A
:101580008B01EC01FB010084F185E02D0995892B8D
:10159000E1F6D80116968D919C91179701961796B2
:1015A0009C938E931697CE01DF91CF911F910F914F
:1015B0000895FA01AA27283051F1203181F1E894E9
:1015C0006F936E7F6E5F7F4F8F4F9F4FAF4FB1E036
:1015D0003ED0B4E03CD0670F781F891F9A1FA11D31
:1015E000680F791F8A1F911DA11D6A0F711D811D32
:1015F000911DA11D20D009F468943F912AE0269FF7
:1016000011243019305D3193DEF6CF010895462F55
:101610004770405D4193B3E00FD0C9F7F6CF462F36
:101620004F70405D4A3318F0495D31FD405241939F
:1016300002D0A9F7EACFB4E0A6959795879577955C
:101640006795BA95C9F700976105710508959B01E3
:10165000AC010A2E06945795479537952795BA956C
:10166000C9F7620F731F841F951FA01D0895F8947A
:02167000FFCFAA
:00000001FF
