S01600006E6F77795F737465726F776E696B2E73726563FC
S11300000C94AB000C94C8000C94C8000C94C80069
S11300100C94C8000C94C8000C94C8000C94C8003C
S11300200C94C8000C94C8000C9467050C94C80088
S11300300C94C8000C9449060C947C060C94C800DB
S11300400C94C8000C94C8000C94C8000C94C8000C
S11300500C94C8006E616E00696E660000407A10F0
S1130060F35A00A0724E18090010A5D4E80000E865
S11300707648170000E40B54020000CA9A3B0000C3
S113008000E1F505000080969800000040420F0052
S11300900000A08601000000102700000000E80313
S11300A0000000006400000000000A0000000000DE
S11300B00100000000002C76D888DC674F0823DF9D
S11300C0C1DFAE59E1B1B796E5E3E453C63AE65170
S11300D0997696E8E6C28426EB898C9B62ED407C97
S11300E06FFCEFBC9C9F40F2BAA56FA5F490055A33
S11300F02AF75C936B6CF9676DC11BFCE0E40D4758
S1130100FEF520E6B500D0ED902E0300943577057A
S11301100080841E080000204E0A000000C80C3332
S11301203333330F986E12831141EF8D2114893BC1
S1130130E65516CFFEE6DB18D1844B381BF77C1D41
S1130140901DA4BBE424203284725E228100C9F194
S113015024ECA1E53D2711241FBECFE5D8E0DEBF86
S1130160CDBF11E0A0E6B0E0ECEDFBE102C00590EC
S11301700D92A033B107D9F724E0A0E3B1E001C0A8
S11301801D92AF33B207E1F70E9409010C94EC0D04
S11301900C940000CF93DF93CDB7DEB7AE014B5F75
S11301A05F4FFA0161917191AF0189ED92E00E9474
S11301B0720DE9EDF2E0DF010D900020E9F79D01F9
S11301C02150310908C081918A3029F480E690E0F9
S11301D00E94EE0603C0E217F307A9F789ED92E047
S11301E00E94EE06DF91CF910895899A089588E0E0
S11301F090E00E94A30662E381E00E949C050E94B5
S113020058050E94C3030E943F0380B78B7F80BFC1
S1130210089580E00E94D5040E94F50078940E941D
S1130220F70087E690E09F938F930E94CA000E9494
S113023059050F900F90C9E3D4E00EE810E08091C7
S1130240D70290E00E949E038091D80290E00E9421
S113025046050E94E1030E9459010E9405030E9481
S1130260C8024A815B816C817D81809119039091E0
S11302701A03A0911B03B0911C0384179507A607CA
S1130280B707E8F61F930F930E94CA008A819B81E7
S1130290AC81BD8188519C4FAF4FBF4F80931903F0
S11302A090931A03A0931B03B0931C030F900F9019
S11302B0C6CF40913B0450913C0460913D04709141
S11302C03E048091300190913101A0913201B091AE
S11302D0330184179507A607B707B8F483E00E9493
S11302E0BC0480913B0490913C04A0913D04B091E6
S11302F03E048C599F4FAF4FBF4F80933001909372
S11303003101A0933201B09333010895379897B126
S1130310987F8770892B87B9379A0895369A3699CA
S1130320FECF84B195B108950E9486010E948E018A
S1130330089510925101109252011092530110929B
S113034054011092500110924F018CE391E00E94ED
S1130350080608950F931F93CF93DF93161617067D
S113036054F48C01EC01060F171F89910E94D906E1
S1130370C017D107D1F7DF91CF911F910F91089545
S1130380EFE1F3E08EED808386E08183A9E4B1E0C0
S1130390E1E2F3E027E233E08D918193E217F30782
S11303A0D9F768E070E08FE193E00E94AA01089514
S11303B0E1E4F1E080819181992790932204809374
S11303C021048281938190931E0380931D0386816F
S11303D0978190932404809323048481958190933E
S11303E0200480931F04892B39F00E946D038091AF
S11303F021040E94960302C00E94590380912304A1
S113040090912404892B39F080911D0390911E034F
S11304100E94080502C00E9428058091230490913F
S11304202404892B11F0959A089595980895CF92F4
S1130430DF92EF92FF920F931F93409151015091DD
S113044052016091530170915401411551056105A8
S11304507105B9F48093500181E090E0A0E0B0E030
S11304608093510190935201A0935301B09354018E
S113047048EC50E060E070E08CE391E00E94D0052D
S113048080C0909150019E3E09F476C09E3F09F4CD
S11304906EC09E3D09F073C0413051056105710580
S11304A019F580934F0142E050E060E070E0409322
S11304B05101509352016093530170935401883059
S11304C051F00E94990187E990E09F938F930E94D5
S11304D0CA000F900F9048EC50E060E070E08CE3AD
S11304E091E00E94D0054DC000914F0110E020E042
S11304F030E06A017B0192E0C91AD108E108F108F1
S1130500C016D106E206F30638F5FA01E15CFE4FA7
S11305108083DB01CA010196A11DB11D80935101A5
S113052090935201A0935301B09354014150510947
S113053061097109041715072607370721F40E947A
S113054099010E94D80148EC50E060E070E08CE32F
S113055091E00E94D00515C00E94990187EA90E0BD
S11305609F938F930E94CA000F900F900AC00E941D
S1130570C0010E94990105C00E94990102C00E9415
S113058099011F910F91FF90EF90DF90CF90089504
S113059040913B0450913C0460913D0470913E04B1
S11305A08091380190913901A0913A01B0913B01B9
S11305B084179507A607B70738F50E94B9060E9465
S11305C017028CE391E00E94E805892B51F00E9408
S11305D0990185EC90E09F938F930E94CA000F903D
S11305E00F9080913B0490913C04A0913D04B09104
S11305F03E040596A11DB11D8093380190933901E5
S1130600A0933A01B0933B01089540913B0450916B
S11306103C0460913D0470913E04809134019091BA
S11306203501A0913601B091370184179507A607CB
S1130630B70720F5E9E4F1E08BE790E0918380834C
S113064081E491E0938382838FEF9FE09583848399
S11306500E94C00180913B0490913C04A0913D0410
S1130660B0913E0488539F4FAF4FBF4F80933401E6
S113067090933501A0933601B093370108958D9A74
S11306808CE391E00E94C805089586ED90E09F9365
S11306908F930E94CA0089E294E00E94C80581E019
S11306A080932504949815BC8F9A979A0F900F9075
S11306B0089584EE90E09F938F930E94CA0015BC26
S11306C0979A13BCE5E2F4E08081818381E0808322
S11306D00F900F9081E090E008958091250481307F
S11306E011F582EF90E09F938F930E94CA0085B525
S11306F0806385BD85B5806485BD85B5816085BD14
S1130700E5E2F4E08081818382E0808348EE53E077
S113071060E070E089E294E00E94D0050F900F90B1
S113072081E090E0089580E090E0089590912504A0
S1130730923019F483BD809328040895CF93C82F71
S113074046E950E060E070E085E591E00E94120621
S1130750892B29F080912504823009F4C3BDCF91FF
S11307600895FC0120813181623058F0329691E085
S113077041915191240F351F369527959F5F691339
S1130780F7CFC9010895EEE9F1E026EC31E081EFFD
S113079091E0819391932E173F07D9F7EDE7F1E0AC
S11307A08BE991E0119211928E179F07D9F7E5E634
S11307B0F1E089E791E0119211928E179F07D9F722
S11307C00895CF92DF92EF92FF92CF93DF934091FF
S11307D03B0450913C0460913D0470913E0480912F
S11307E05E0190915F01A0916001B0916101841755
S11307F09507A607B70708F0B8C080913B0490910D
S11308003C04A0913D04B0913E044496A11DB11D49
S113081080935E0190935F01A0936001B0936101A6
S113082080E00E949401EC0160919B0170919C0115
S113083080E090E00E94990721E73DE34AE85EE307
S11308400E9427086B017C01BE0180E090E00E94B9
S113085099079B01AC01C701B6010E94FE060E94E4
S11308606A077093C9016093C8012091CA01E22FFD
S1130870F0E0EE0FFF1FE256FE4F7183608381E0CC
S1130880820F8093CA0182E00E9494018032910514
S113089030F04F9790937C0180937B0104C01092B9
S11308A07C0110927B01E0919D01F0E0EE0FFF1FAF
S11308B0E358FE4F80917B0190917C01918380836A
S11308C081E00E9494019093630180936201C0913E
S11308D06401EC2FF0E0EE0FFF1FEB59FE4F918304
S11308E08083D0919D01DF5FD0939D01CF5FC09342
S11308F0640164E18EE991E00E94B1039093C70121
S11309008093C6016FE08DE791E00E94B10390935C
S11309109C0180939B016AE085E691E00E94B1030B
S113092090937A018093790180915A0190915B01AF
S1130930A0915C01B0915D010196A11DB11D809350
S11309405A0190935B01A0935C01B0935D01809187
S1130950CA01843111F41092CA01CA3011F4109200
S11309606401DF3011F410929D01DF91CF91FF906B
S1130970EF90DF90CF900895833018F4813040F0E9
S11309800CC0833079F48091C6019091C701089519
S113099080919B0190919C0108958091790190919F
S11309A07A01089580E090E00895CF93DF932FE1DA
S11309B03EE437BD26BD81B3806381BB19BC18BC3E
S11309C01BBC1ABC8FB582608FBD8EB588618EBD8D
S11309D08FB580688FBD8EB582608EBD3BBD2ABD4C
S11309E096981BBC1ABCCFE2D4E081E088831B82BA
S11309F083E394E00E94C80519868FEF90E09F93EB
S1130A008F930E94CA000F900F90DF91CF910895A9
S1130A109C0190912F0491509230B8F4EFE2F4E0ED
S1130A2082E0808323833BBD2ABD3F932F938CE0D8
S1130A3091E09F938F930E94CA00969A0F900F9013
S1130A400F900F9081E090E0089580E090E0089589
S1130A5080912F048230B9F41BBC1ABCEFE2F4E09D
S1130A6081E0808313821F921F928EE191E09F9315
S1130A708F930E94CA0096980F900F900F900F903A
S1130A8081E090E0089580E090E00895CF93DF93B3
S1130A90EC014BE450E060E070E08BEC91E00E94EC
S1130AA01206892B11F0DBBDCABDDF91CF910895E9
S1130AB008950E94450380E00E94D5040E94C30368
S1130AC081E090E09093D6028093D50208951F921E
S1130AD00F920FB60F9211242F938F939F93AF937E
S1130AE0BF93EF93FF93E9E3F4E080819181C29691
S1130AF09183808380819181883E934088F08281B4
S1130B009381A481B5810196A11DB11D8283938334
S1130B10A483B58380819181885E9340918380838F
S1130B20FF91EF91BF91AF919F918F912F910F9072
S1130B300FBE0F901F90189593B7986093BF6CBF2A
S1130B40823099F028F4882341F0813051F019C0A3
S1130B50833079F0843089F014C083B7816083BF17
S1130B6013C083B7826083BF0FC083B7836083BF22
S1130B700BC083B7846083BF07C083B7856083BF1E
S1130B8003C083B7816083BF89B7826089BF08953A
S1130B9023E0FC01248310821182128213820895BF
S1130BA00F931F9321E0FC01248300913B041091D7
S1130BB03C0420913D0430913E04400F511F621FBC
S1130BC0731F40835183628373831F910F91089530
S1130BD0FC0184818130B1F480913B0490913C0408
S1130BE0A0913D04B0913E044081518162817381A2
S1130BF0481759076A077B0740F482E0848381E041
S1130C0090E008958FEF9FEF089580E090E00895BD
S1130C1021E030E0FC018481833011F020E030E0F9
S1130C20C9010895CF92DF92EF92FF920F931F9321
S1130C30CF93DF93EC016A017B018C81811106C0A3
S1130C4083E08C83188219821A821B82CE010E944F
S1130C50E8058C01019731F4B701A601CE010E9489
S1130C60D0050DC08C81833041F4B701A601CE01BB
S1130C700E94D00500E010E002C000E010E0C801CE
S1130C80DF91CF911F910F91FF90EF90DF90CF9064
S1130C9008951F920F920FB60F9211242F933F9332
S1130CA04F935F938F939F93EF93FF932BB13CB13B
S1130CB028718091D20190E001968F779927409115
S1130CC0D10150E08417950739F08093D201FC01DB
S1130CD0EB52FE4F308301C022E02093D001FF91FC
S1130CE0EF919F918F915F914F913F912F910F9031
S1130CF00FBE0F901F9018951F920F920FB60F9270
S1130D0011248F939F93EF93FF939091D40180913B
S1130D10D301981771F08091D30190E001968F77F9
S1130D2099278093D301FC01EB5AFD4F80818CB944
S1130D3001C05598FF91EF919F918F910F900FBE35
S1130D400F901F901895F8941092D4011092D3012B
S1130D501092D2011092D101789499231CF422E0CC
S1130D602BB99F7790BD89B988E98AB986E880BD97
S1130D700895F8949091D2018091D101981304C000
S1130D80789480E091E0089578948091D10190E086
S1130D9001968F7799278093D101FC01EB52FE4F86
S1130DA020818091D00190E0982F8827820F911D97
S1130DB008954091D40150E04F5F5F4F4F7755271E
S1130DC02091D30130E042175307D1F3FA01EB5AD3
S1130DD0FD4F80834093D401559A0895CF93DF93B8
S1130DE0EC018881882331F021960E94D9068991EB
S1130DF08111FBCFDF91CF9108955058BB27AA27CB
S1130E000E9415070C94ED070E94DF0738F00E943A
S1130E10E60720F039F49F3F19F426F40C94DC071C
S1130E200EF4E095E7FB0C94D607E92F0E94FE0729
S1130E3058F3BA17620773078407950720F079F40B
S1130E40A6F50C9420080EF4E0950B2EBA2FA02DD5
S1130E500B01B90190010C01CA01A0011124FF2763
S1130E60591B99F0593F50F4503E68F11A16F0405E
S1130E70A22F232F342F4427585FF3CF469537955D
S1130E802795A795F0405395C9F77EF41F16BA0B22
S1130E90620B730B840BBAF09150A1F0FF0FBB1FD0
S1130EA0661F771F881FC2F70EC0BA0F621F731F19
S1130EB0841F48F4879577956795B795F7959E3F76
S1130EC008F0B0CF9395880F08F09927EE0F979507
S1130ED0879508950E94060888F09F5798F0B92FC7
S1130EE09927B751B0F0E1F0660F771F881F991F5B
S1130EF01AF0BA95C9F714C0B13091F00E942008D5
S1130F00B1E008950C942008672F782F8827B85FE4
S1130F1039F0B93FCCF3869577956795B395D9F7B2
S1130F203EF490958095709561957F4F8F4F9F4FBC
S1130F300895E89409C097FB3EF4909580957095C8
S1130F4061957F4F8F4F9F4F9923A9F0F92F96E911
S1130F50BB279395F695879577956795B795F11186
S1130F60F8CFFAF4BB0F11F460FF1BC06F5F7F4F23
S1130F708F4F9F4F16C0882311F096E911C0772335
S1130F8021F09EE8872F762F05C0662371F096E83E
S1130F90862F70E060E02AF09A95660F771F881F0D
S1130FA0DAF7880F9695879597F9089597F99F67CB
S1130FB080E870E060E008959FEF80EC08950024DD
S1130FC00A941616170618060906089500240A94AA
S1130FD012161306140605060895092E0394000C30
S1130FE011F4882352F0BB0F40F4BF2B11F460FFBF
S1130FF004C06F5F7F4F8F4F9F4F089557FD9058E8
S1131000440F551F59F05F3F71F04795880F97FBC8
S1131010991F61F09F3F79F0879508951216130682
S11310201406551FF2CF4695F1DF08C016161706B1
S11310301806991FF1CF86957105610508940895E6
S1131040E894BB2766277727CB0197F908950E9478
S11310503A080C94ED070E94DF0738F00E94E60777
S113106020F0952311F00C94D6070C94DC0711247E
S11310700C9421080E94FE0770F3959FC1F3950F0D
S113108050E0551F629FF001729FBB27F00DB11D08
S1131090639FAA27F00DB11DAA1F649F6627B00D98
S11310A0A11D661F829F2227B00DA11D621F739F81
S11310B0B00DA11D621F839FA00D611D221F749F8F
S11310C03327A00D611D231F849F600D211D822FD6
S11310D0762F6A2F11249F5750409AF0F1F08823FD
S11310E04AF0EE0FFF1FBB1F661F771F881F91502A
S11310F05040A9F79E3F510580F00C94D6070C94FC
S113110021085F3FE4F3983ED4F38695779567957D
S1131110B795F795E7959F5FC1F7FE2B880F911D53
S11311209695879597F90895A0E1B0E0EAE9F8E08B
S11311300C94110C7C011B016A01FC0117821682BC
S1131140838181FF44C39E012F5F3F4F3901F70123
S11311509381F10193FD859193FF81911F01882370
S113116009F431C3853239F493FD859193FF81915C
S11311701F01853239F4B70190E00E94360D560103
S11311806501E5CF10E0512C912CFFE1F915D8F061
S11311908B3279F038F4803279F08332A1F4F92D6E
S11311A0F0612EC08D3261F0803369F4292D216005
S11311B02DC0392D3260932E892D8460982E2AC03B
S11311C0E92DE86015C097FC2DC020ED280F2A30CA
S11311D088F496FE06C03AE0139F200D1124122FC6
S11311E019C08AE0589E200D1124522EE92DE06288
S11311F09E2E10C08E3231F496FCE5C2F92DF064B7
S11312009F2E08C08C3621F4292D2068922E02C00E
S1131210883641F4F10193FD859193FF81911F017B
S11312208111B3CF9BEB980F933020F4992D9061EB
S1131230805E07C09BE9980F933008F066C1992D32
S11312409F7E96FF16E09F73992E853619F490645D
S1131250992E08C0863621F4392F3068932E02C0A7
S11312601111115097FE07C01C3350F444244394C9
S1131270410E27E00BC0183038F027E017E005C016
S113128027E09CE3492E02C0212F412C560184E023
S1131290A80EB11CF6016081718182819381042DB5
S11312A0A3010E94480C6C01F981FC87F0FF02C085
S11312B0F3FF06C091FC06C092FE06C000E205C022
S11312C00DE203C00BE201C000E08C858C7019F0C4
S11312D001115AC29BC297FE10C04C0CFC85F4FF4E
S11312E004C08A81813309F44A94141474F528E003
S11312F0241578F588E0482E2CC096FC2AC0812F4E
S113130090E08C159D059CF03CEFC3163FEFD3068F
S113131074F0892D8068982E0AC0E2E0F0E0EC0FAA
S1131320FD1FE10FF11D8081803319F4115011115B
S1131330F4CF97FE0EC044244394410E812F90E0D5
S1131340C816D9062CF41C1904C04424439401C0C3
S113135010E097FE06C01C141D0434F4C601019667
S113136005C085E090E002C081E090E001110196A3
S1131370112331F0212F30E02F5F3F4F820F931F55
S1131380252D30E08217930714F4581A01C0512C0C
S1131390892D897049F4552039F0B70180E290E035
S11313A00E94360D5A94F7CF002329F0B701802FFD
S11313B090E00E94360D93FC09C0552039F0B70126
S11313C080E390E00E94360D5A94F7CF97FE4CC00C
S11313D04601D7FE02C0812C912CC60188199909B7
S11313E0F301E80FF91FFE87ED87960124193109EF
S11313F0388B2F87012F10E01195019511093FEFCC
S11314008316930629F4B7018EE290E00E94360D0C
S1131410C814D9044CF08F8598898815990524F44B
S1131420ED85FE85818101C080E3F1E08F1A91088A
S11314302D853E852F5F3F4F3E872D878016910671
S11314402CF0B70190E00E94360DD9CFC814D9040E
S113145041F49A81963320F4953319F43C8534FF92
S113146081E3B70190E04EC08A81813319F09C85F5
S11314709F7E9C87B70190E00E94360D111105C034
S113148094FC18C085E690E017C0B7018EE290E0A6
S11314900E94360D1E5F82E001E0080FF301E80FA1
S11314A0F11D8081B70190E00E94360D802F011359
S11314B0F3CFE6CF85E490E0B7010E94360DD7FC68
S11314C006C0C114D10441F4EC85E4FF05C0D194F5
S11314D0C194D1088DE201C08BE2B70190E00E9473
S11314E0360D80E32AE0C216D1042CF08F5FFAE0B7
S11314F0CF1AD108F7CFB70190E00E94360DB7019B
S1131500C601C0960E94360D54C1833631F083372C
S113151079F0833509F056C020C0560132E0A30E9D
S1131520B11CF6018081898301E010E0630112C0DF
S11315305601F2E0AF0EB11CF601C080D18096FED8
S113154003C0612F70E002C06FEF7FEFC6010E94FD
S11315502B0D8C01F92DFF7714C0560122E0A20E49
S1131560B11CF601C080D18096FE03C0612F70E0EB
S113157002C06FEF7FEFC6010E94200D8C01F92D90
S1131580F0689F2EF3FD1AC0852D90E00817190707
S1131590A8F4B70180E290E00E94360D5A94F4CF8B
S11315A0F60197FC859197FE81916F01B70190E058
S11315B00E94360D51105A9401501109011511055C
S11315C079F7F7C0843611F0893661F5560197FE34
S11315D009C024E0A20EB11CF601608171818281F0
S11315E093810AC0F2E0AF0EB11CF60160817181F3
S11315F0072E000C880B990BF92DFF769F2E97FF71
S113160009C090958095709561957F4F8F4F9F4F3E
S1131610F0689F2E2AE030E0A3010E948E0DC82EB0
S1131620C6183FC0092D853721F40F7E2AE030E02B
S11316301DC0097F8F3691F018F4883559F0C3C066
S1131640803719F0883711F0BEC0006104FF09C06B
S1131650046007C094FE08C0066006C028E030E0BD
S113166005C020E130E002C020E132E0560107FF6E
S113167009C084E0A80EB11CF601608171818281E9
S1131680938108C0F2E0AF0EB11CF6016081718154
S113169080E090E0A3010E948E0DC82EC6180F773B
S11316A0902E96FE0BC0092D0E7FC11650F494FEA9
S11316B00AC092FC08C0092D0E7E05C0DC2C092D41
S11316C003C0DC2C01C0D12E04FF0DC0FE01EC0DC3
S11316D0F11D8081803311F4097E09C002FF06C028
S11316E0D394D39404C0802F867809F0D39403FD57
S11316F011C000FF06C01C2DD51480F4150D1D1952
S11317000DC0D51458F4B70180E290E00E94360D64
S1131710D394F7CFD51410F45D1801C0512C04FFF5
S113172010C0B70180E390E00E94360D02FF17C09D
S113173001FD03C088E790E002C088E590E0B701AE
S11317400CC0802F867859F001FF02C08BE201C0E3
S113175080E207FD8DE2B70190E00E94360DC116CC
S113176038F4B70180E390E00E94360D1150F7CFB2
S1131770CA94F301EC0DF11D8081B70190E00E9441
S1131780360DC110F5CF15C0F4E0F51560F584E011
S1131790581A93FE1FC0011127C02C8523FF2AC0AD
S11317A004E510E0392D3071932EF80184918111F4
S11317B024C0552009F4E4CCB70180E290E00E94F3
S11317C0360D5A94F6CFF7018681978126C08FEFA4
S11317D09FEF23C0B70180E290E00E94360D5A9437
S11317E05110F8CFD8CF512CB701802F90E00E9430
S11317F0360DD3CF08E510E0D5CF91108052B70154
S113180090E00E94360D0F5F1F4FCFCF23E02515C8
S113181010F483E0BDCF512CC0CF6096E2E10C946C
S11318202D0C2F923F924F925F926F927F928F92E4
S11318309F92AF92BF92CF92DF92EF92FF920F935B
S11318401F93CF93DF93CDB7DEB7CA1BDB0B0FB665
S1131850F894DEBF0FBECDBF09942A883988488822
S11318605F846E847D848C849B84AA84B984C884B8
S1131870DF80EE80FD800C811B81AA81B981CE0FAF
S1131880D11D0FB6F894DEBF0FBECDBFED01089594
S1131890283008F027E03327DA01990F311D87FD3E
S11318A0916000966105710539F432602E5F3D93B5
S11318B030E32A95E1F708959F3F30F080387105B1
S11318C0610509F03C5F3C5F3D93913008F080680E
S11318D0911DDF93CF931F930F93FF92EF92192FD4
S11318E0987F9695E92F96959695E90FFF27EA54E8
S11318F0FF4F99273327EE24FF24A701E701059022
S11319000894079428F4360FE71EF81E491F511D4A
S1131910660F771F881F991F0694A1F705900794F7
S113192028F4E70EF81E491F561FC11D770F881FA4
S1131930991F661F0694A1F70590079428F4F80EE2
S1131940491F561FC71FD11D880F991F661F771F78
S11319500694A1F70590079420F4490F561FC71F5A
S1131960D81F990F661F771F881F0694A9F78491C3
S11319701095177041F0D695C79557954795F794EC
S1131980E7941A95C1F7ECE5F0E068941590159189
S113199035916591959105907FE27395E118F10A6F
S11319A0430B560BC90BD009C0F7E10CF11E431FC2
S11319B0561FC91FD01D7EF4703311F48A95E6CFEB
S11319C0E894015030F0080F0AF40027021708F4D5
S11319D0202F2395022F7A3328F079E37D932A95DB
S11319E0E9F710C07D932A9589F606949795679533
S11319F0379517951794E118F10A430B560BC90B49
S1131A00D00998F023957E9173957A3308F070E3AA
S1131A107C932013B8F77E9170617D9330F08395A9
S1131A2071E37D9370E32A95E1F71124EF90FF9021
S1131A300F911F91CF91DF91992787FD909508957C
S1131A40FC010590615070400110D8F78095909585
S1131A508E0F9F1F0895FC0161507040019001108A
S1131A60D8F7809590958E0F9F1F08950F931F931D
S1131A70CF93DF93FB01238121FD03C08FEF9FEF01
S1131A802CC022FF16C0468157812481358142171C
S1131A90530744F4A081B1819D012F5F3F4F3183EF
S1131AA020838C93268137812F5F3F4F3783268392
S1131AB014C08B01EC01FB010084F185E02D099534
S1131AC0892BE1F6D80116968D919C911797019672
S1131AD017969C938E931697CE01DF91CF911F9109
S1131AE00F910895AEE0B0E0E8E7FDE00C941F0C20
S1131AF08C0186E08C831A8309838FEF9FE79E8392
S1131B008D83CE0101960E949408EF81F885E00F41
S1131B10F11F10822E96E4E00C943B0CFA01AA27E4
S1131B20283051F1203181F1E8946F936E7F6E5F1C
S1131B307F4F8F4F9F4FAF4FB1E03ED0B4E03CD0CA
S1131B40670F781F891F9A1FA11D680F791F8A1FAD
S1131B50911DA11D6A0F711D811D911DA11D20D014
S1131B6009F468943F912AE0269F11243019305DCE
S1131B703193DEF6CF010895462F4770405D4193BF
S1131B80B3E00FD0C9F7F6CF462F4F70405D4A330C
S1131B9018F0495D31FD4052419302D0A9F7EACFD4
S1131BA0B4E0A6959795879577956795BA95C9F703
S1131BB000976105710508959B01AC010A2E0694F6
S1131BC05795479537952795BA95C9F7620F731FAF
S10F1BD0841F951FA01D0895F894FFCFFA
S1131BDC0A0D41543A20002F2D2D2D2D2D2D2D2D58
S1131BEC2D2D2D53544152542053595354454D2D9E
S1131BFC2D2D2D2D2D2D2D2D2D2D2D2F0A00415418
S1131C0C4D454741200A004652414D45204241442E
S1131C1C204C454E0A0D0041544D45474120524538
S1131C2C434549564520554E4B4E4F57204552522D
S1131C3C4F520A0D007654696D657243616C6C6287
S1131C4C61636B0A0D0064636D6F746F7220696E4F
S1131C5C69740A0064636D6F746F722073746F70AF
S1131C6C0A004D6F746F722053746172740A0053BE
S1131C7C4552564F3A20696E69740A0053455256C0
S1131C8C4F5F4F5050454E45442025640A00534540
S1131C9C52564F5F434C4F5345442025640A000071
S9030000FC
