:100000000C94AB000C94C8000C94C8000C94C8006D
:100010000C94C8000C94C8000C94C8000C94C80040
:100020000C94C8000C94C8000C9495040C94C8005F
:100030000C94C8000C9477050C94AA050C94C80085
:100040000C94C8000C94C8000C94C8000C94C80010
:100050000C94C8006E616E00696E660000407A10F4
:10006000F35A00A0724E18090010A5D4E80000E869
:100070007648170000E40B54020000CA9A3B0000C7
:1000800000E1F505000080969800000040420F0056
:100090000000A08601000000102700000000E80317
:1000A000000000006400000000000A0000000000E2
:1000B0000100000000002C76D888DC674F0823DFA1
:1000C000C1DFAE59E1B1B796E5E3E453C63AE65174
:1000D000997696E8E6C28426EB898C9B62ED407C9B
:1000E0006FFCEFBC9C9F40F2BAA56FA5F490055A37
:1000F0002AF75C936B6CF9676DC11BFCE0E40D475C
:10010000FEF520E6B500D0ED902E0300943577057E
:100110000080841E080000204E0A000000C80C3336
:100120003333330F986E12831141EF8D2114893BC5
:10013000E65516CFFEE6DB18D1844B381BF77C1D45
:10014000901DA4BBE424203284725E228100C9F198
:1001500024ECA1E53D2711241FBECFE5D8E0DEBF8A
:10016000CDBF10E0A0E6B0E0E8E3FAE102C0059000
:100170000D92A23EB107D9F723E0A2EEB0E001C094
:100180001D92A93EB207E1F70E9409010C941A0DD5
:100190000C940000CF93DF93CDB7DEB7AE014B5F79
:1001A0005F4FFA0161917191AF018BE892E00E947B
:1001B000A00CEBE8F2E0DF010D900020E9F79D01D3
:1001C0002150310908C081918A3029F480E690E0FD
:1001D0000E941C0603C0E217F307A9F78BE892E020
:1001E0000E941C06DF91CF910895899A089588E0B6
:1001F00090E00E94D10562E381E00E94CA040E945F
:1002000086040E942F030E94EA0280B78B7F80BF82
:10021000089580E00E9441040E94F50078940E94B5
:10022000F70085E690E09F938F930E94CA000E949A
:1002300087040F900F90C3EED3E00CE810E080919C
:10024000890290E00E94030380918A0290E00E945C
:1002500074040E944D030E9459010E94B0020E9442
:1002600073024A815B816C817D818091CB02909188
:10027000CC02A091CD02B091CE0284179507A607BB
:10028000B707E8F61F930F930E94CA008A819B81EB
:10029000AC81BD8188519C4FAF4FBF4F8093CB0243
:1002A0009093CC02A093CD02B093CE020F900F900A
:1002B000C6CF4091E5035091E6036091E70370914A
:1002C000E8038091E2009091E300A091E400B091F6
:1002D000E50084179507A607B707B8F483E00E94E6
:1002E00028048091E5039091E603A091E703B09183
:1002F000E8038C599F4FAF4FBF4F8093E20090931C
:10030000E300A093E400B093E5000895379897B117
:10031000987F8770892B87B9379A0895369A3699CE
:10032000FECF84B195B108950E9486010E948E018E
:100330000895109203011092040110920501109289
:10034000060110920201109201018EEE90E00E94CF
:10035000360508950F931F93CF93DF931616170654
:1003600054F48C01EC01060F171F89910E940706B7
:10037000C017D107D1F7DF91CF911F910F91089549
:10038000EFECF2E08EED808386E08183ABEFB0E0AE
:10039000E1EDF2E027ED32E08D918193E217F30772
:1003A000D9F768E070E08FEC92E00E94AA0108950E
:1003B000CF92DF92EF92FF920F931F934091030130
:1003C000509104016091050170910601411551059C
:1003D00061057105B9F48093020181E090E0A0E02D
:1003E000B0E08093030190930401A0930501B093C2
:1003F000060148EC50E060E070E08EEE90E00E9474
:10040000FE046AC0909102019E3E09F460C09E3FC6
:1004100009F458C09E3D09F05DC0413051056105A9
:10042000710519F58093010142E050E060E070E051
:1004300040930301509304016093050170930601FA
:10044000883051F00E94990185E990E09F938F9345
:100450000E94CA000F900F9048EC50E060E070E0FE
:100460008EEE90E00E94FE0437C00091010110E082
:1004700020E030E06A017B0192E0C91AD108E1086E
:10048000F108C016D106E206F306C8F4FA01EF50EF
:10049000FF4F80834F5F5F4F6F4F7F4F409303014C
:1004A00050930401609305017093060148EC50E0FD
:1004B00060E070E08EEE90E00E94FE040DC00E94AD
:1004C00099010AC00E94C0010E94990105C00E94C2
:1004D000990102C00E9499011F910F91FF90EF9026
:1004E000DF90CF9008954091E5035091E60360912D
:1004F000E7037091E8038091EA009091EB00A091EE
:10050000EC00B091ED0084179507A607B70738F502
:100510000E94E7050E94D8018EEE90E00E94160529
:10052000892B51F00E94990185EA90E09F938F9367
:100530000E94CA000F900F908091E5039091E6030E
:10054000A091E703B091E8030596A11DB11D80932A
:10055000EA009093EB00A093EC00B093ED000895B7
:100560004091E5035091E6036091E7037091E80341
:100570008091E6009091E700A091E800B091E90039
:1005800084179507A607B70720F5EBEFF0E08BE798
:1005900090E09183808381E491E0938382838FEF65
:1005A0009FE0958384830E94C0018091E503909130
:1005B000E603A091E703B091E80388539F4FAF4F44
:1005C000BF4F8093E6009093E700A093E800B093BC
:1005D000E90008958EEE90E00E94F604089588EBFD
:1005E00090E09F938F930E94CA0083ED93E00E9456
:1005F000F60481E08093CF03949815BC8F9A979A64
:100600000F900F900895CF93C82F46E950E060E017
:1006100070E087E091E00E944005892B61F08091B5
:10062000CF03823019F0843019F005C0C3BD03C078
:1006300082E08093CF03CF910895FC012081318126
:10064000623058F0329691E041915191240F351F5C
:10065000369527959F5F6913F7CFC9010895E0E5A7
:10066000F1E028E731E081EF91E0819391932E173B
:100670003F07D9F7EFE2F1E08DE491E0119211929A
:100680008E179F07D9F7E7E1F1E08BE291E0119235
:1006900011928E179F07D9F70895CF92DF92EF92AC
:1006A000FF92CF93DF934091E5035091E603609171
:1006B000E7037091E8038091100190911101A091DE
:1006C0001201B091130184179507A607B70708F028
:1006D000B8C08091E5039091E603A091E703B09143
:1006E000E8034496A11DB11D809310019093110160
:1006F000A0931201B093130180E00E949401EC01D9
:1007000060914D0170914E0180E090E00E94C7061B
:1007100021E73DE34AE85EE30E9455076B017C0157
:10072000BE0180E090E00E94C7069B01AC01C701BA
:10073000B6010E942C060E94980670937B0160937C
:100740007A0120917C01E22FF0E0EE0FFF1FE05BC9
:10075000FE4F7183608381E0820F80937C0182E091
:100760000E9494018032910530F04F9790932E01B2
:1007700080932D0104C010922E0110922D01E09162
:100780004F01F0E0EE0FFF1FE15DFE4F80912D0164
:1007900090912E019183808381E00E949401909337
:1007A000150180931401C0911601EC2FF0E0EE0FBB
:1007B000FF1FE95EFE4F91838083D0914F01DF5F81
:1007C000D0934F01CF5FC093160164E180E591E0C3
:1007D0000E941D0390937901809378016FE08FE26E
:1007E00091E00E941D0390934E0180934D016AE0B9
:1007F00087E191E00E941D0390932C0180932B01CF
:1008000080910C0190910D01A0910E01B0910F010A
:100810000196A11DB11D80930C0190930D01A09331
:100820000E01B0930F0180917C01843111F410927C
:100830007C01CA3011F410921601DF3011F41092CD
:100840004F01DF91CF91FF90EF90DF90CF9008950F
:10085000833018F4813040F00CC0833079F48091FB
:10086000780190917901089580914D0190914E0108
:10087000089580912B0190912C01089580E090E0E3
:100880000895CF93DF932FE13EE437BD26BD81B3BA
:10089000806381BB19BC18BC1BBC1ABC8FB58260BD
:1008A0008FBD8EB588618EBD8FB580688FBD8EB5CA
:1008B00082608EBD3BBD2ABD96981BBC1ABCC9ED9B
:1008C000D3E081E088831B828DED93E00E94F604E3
:1008D000198684ED90E09F938F930E94CA000F9039
:1008E0000F90DF91CF910895CF93DF93EC014BE40C
:1008F00050E060E070E08DE791E00E944005892BB8
:1009000011F0DBBDCABDDF91CF91089508950E941B
:10091000EF0280E00E9441040E942F0381E090E0FA
:10092000909388028093870208951F920F920FB6CA
:100930000F9211242F938F939F93AF93BF93EF93B5
:10094000FF93E3EEF3E080819181C29691838083EF
:1009500080819181883E934088F082819381A48137
:10096000B5810196A11DB11D82839383A483B583B4
:1009700080819181885E934091838083FF91EF9184
:10098000BF91AF919F918F912F910F900FBE0F90BC
:100990001F90189593B7986093BF6CBF823099F001
:1009A00028F4882341F0813051F019C0833079F068
:1009B000843089F014C083B7816083BF13C083B7CC
:1009C000826083BF0FC083B7836083BF0BC083B7D0
:1009D000846083BF07C083B7856083BF03C083B7CC
:1009E000816083BF89B7826089BF089523E0FC01DD
:1009F0002483108211821282138208950F931F9311
:100A000021E0FC0124830091E5031091E60320918D
:100A1000E7033091E803400F511F621F731F4083AB
:100A20005183628373831F910F910895FC01848128
:100A30008130B1F48091E5039091E603A091E70342
:100A4000B091E80340815181628173814817590751
:100A50006A077B0740F482E0848381E090E0089598
:100A60008FEF9FEF089580E090E0089521E030E05F
:100A7000FC018481833011F020E030E0C901089549
:100A8000CF92DF92EF92FF920F931F93CF93DF935A
:100A9000EC016A017B018C81811106C083E08C83AB
:100AA000188219821A821B82CE010E9416058C01BF
:100AB000019731F4B701A601CE010E94FE040DC0DA
:100AC0008C81833041F4B701A601CE010E94FE045F
:100AD00000E010E002C000E010E0C801DF91CF911B
:100AE0001F910F91FF90EF90DF90CF9008951F928C
:100AF0000F920FB60F9211242F933F934F935F9352
:100B00008F939F93EF93FF932BB13CB1287180910A
:100B1000840190E001968F7799274091830150E0FE
:100B20008417950739F080938401FC01E957FE4F43
:100B3000308301C022E020938201FF91EF919F91C9
:100B40008F915F914F913F912F910F900FBE0F901A
:100B50001F9018951F920F920FB60F9211248F932A
:100B60009F93EF93FF939091860180918501981751
:100B700071F08091850190E001968F77992780939D
:100B80008501FC01E95FFD4F80818CB901C055985A
:100B9000FF91EF919F918F910F900FBE0F901F903B
:100BA0001895F89410928601109285011092840194
:100BB00010928301789499231CF422E02BB99F773B
:100BC00090BD89B988E98AB986E880BD0895F8940E
:100BD0009091840180918301981304C0789480E0FF
:100BE00091E0089578948091830190E001968F7749
:100BF000992780938301FC01E957FE4F2081809162
:100C0000820190E0982F8827820F911D08954091CE
:100C1000860150E04F5F5F4F4F7755272091850148
:100C200030E042175307D1F3FA01E95FFD4F8083AB
:100C300040938601559A0895CF93DF93EC01888104
:100C4000882331F021960E94070689918111FBCFFC
:100C5000DF91CF9108955058BB27AA270E944306E1
:100C60000C941B070E940D0738F00E94140720F017
:100C700039F49F3F19F426F40C940A070EF4E0951A
:100C8000E7FB0C940407E92F0E942C0758F3BA17CE
:100C9000620773078407950720F079F4A6F50C9492
:100CA0004E070EF4E0950B2EBA2FA02D0B01B901C3
:100CB00090010C01CA01A0011124FF27591B99F0D2
:100CC000593F50F4503E68F11A16F040A22F232FDE
:100CD000342F4427585FF3CF469537952795A7952E
:100CE000F0405395C9F77EF41F16BA0B620B730BD5
:100CF000840BBAF09150A1F0FF0FBB1F661F771F46
:100D0000881FC2F70EC0BA0F621F731F841F48F4FA
:100D1000879577956795B795F7959E3F08F0B0CF83
:100D20009395880F08F09927EE0F9795879508956A
:100D30000E94340788F09F5798F0B92F9927B75130
:100D4000B0F0E1F0660F771F881F991F1AF0BA956F
:100D5000C9F714C0B13091F00E944E07B1E0089578
:100D60000C944E07672F782F8827B85F39F0B93F6A
:100D7000CCF3869577956795B395D9F73EF4909522
:100D80008095709561957F4F8F4F9F4F0895E894A0
:100D900009C097FB3EF490958095709561957F4FC3
:100DA0008F4F9F4F9923A9F0F92F96E9BB27939571
:100DB000F695879577956795B795F111F8CFFAF481
:100DC000BB0F11F460FF1BC06F5F7F4F8F4F9F4FB2
:100DD00016C0882311F096E911C0772321F09EE810
:100DE000872F762F05C0662371F096E8862F70E076
:100DF00060E02AF09A95660F771F881FDAF7880F50
:100E00009695879597F9089597F99F6780E870E020
:100E100060E008959FEF80EC089500240A94161670
:100E2000170618060906089500240A9412161306D8
:100E3000140605060895092E0394000C11F4882366
:100E400052F0BB0F40F4BF2B11F460FF04C06F5F82
:100E50007F4F8F4F9F4F089557FD9058440F551F58
:100E600059F05F3F71F04795880F97FB991F61F02C
:100E70009F3F79F087950895121613061406551FA3
:100E8000F2CF4695F1DF08C0161617061806991F0F
:100E9000F1CF86957105610508940895E894BB2704
:100EA00066277727CB0197F908950E9468070C946D
:100EB0001B070E940D0738F00E94140720F09523AD
:100EC00011F00C9404070C940A0711240C944F079A
:100ED0000E942C0770F3959FC1F3950F50E0551FAA
:100EE000629FF001729FBB27F00DB11D639FAA277F
:100EF000F00DB11DAA1F649F6627B00DA11D661FCE
:100F0000829F2227B00DA11D621F739FB00DA11DEE
:100F1000621F839FA00D611D221F749F3327A00DA8
:100F2000611D231F849F600D211D822F762F6A2F44
:100F300011249F5750409AF0F1F088234AF0EE0FA9
:100F4000FF1FBB1F661F771F881F91505040A9F7D6
:100F50009E3F510580F00C9404070C944F075F3FAF
:100F6000E4F3983ED4F3869577956795B795F79512
:100F7000E7959F5FC1F7FE2B880F911D969587958A
:100F800097F90895A0E1B0E0E8ECF7E00C943F0B8E
:100F90007C011B016A01FC0117821682838181FF9B
:100FA00044C39E012F5F3F4F3901F7019381F10147
:100FB00093FD859193FF81911F01882309F431C32B
:100FC000853239F493FD859193FF81911F0185321C
:100FD00039F4B70190E00E94640C56016501E5CF39
:100FE00010E0512C912CFFE1F915D8F08B3279F0FB
:100FF00038F4803279F08332A1F4F92DF0612EC0FB
:101000008D3261F0803369F4292D21602DC0392D96
:101010003260932E892D8460982E2AC0E92DE860D5
:1010200015C097FC2DC020ED280F2A3088F496FEBD
:1010300006C03AE0139F200D1124122F19C08AE038
:10104000589E200D1124522EE92DE0629E2E10C0D4
:101050008E3231F496FCE5C2F92DF0649F2E08C063
:101060008C3621F4292D2068922E02C0883641F456
:10107000F10193FD859193FF81911F018111B3CF00
:101080009BEB980F933020F4992D9061805E07C000
:101090009BE9980F933008F066C1992D9F7E96FFCB
:1010A00016E09F73992E853619F49064992E08C026
:1010B000863621F4392F3068932E02C01111115059
:1010C00097FE07C01C3350F444244394410E27E09C
:1010D0000BC0183038F027E017E005C027E09CE38C
:1010E000492E02C0212F412C560184E0A80EB11CCC
:1010F000F6016081718182819381042DA3010E9498
:10110000760B6C01F981FC87F0FF02C0F3FF06C08B
:1011100091FC06C092FE06C000E205C00DE203C0CD
:101120000BE201C000E08C858C7019F001115AC2ED
:101130009BC297FE10C04C0CFC85F4FF04C08A8152
:10114000813309F44A94141474F528E0241578F5D1
:1011500088E0482E2CC096FC2AC0812F90E08C1588
:101160009D059CF03CEFC3163FEFD30674F0892D2C
:101170008068982E0AC0E2E0F0E0EC0FFD1FE10F5E
:10118000F11D8081803319F411501111F4CF97FEB5
:101190000EC044244394410E812F90E0C816D90616
:1011A0002CF41C1904C04424439401C010E097FEA1
:1011B00006C01C141D0434F4C601019605C085E068
:1011C00090E002C081E090E001110196112331F01E
:1011D000212F30E02F5F3F4F820F931F252D30E0EE
:1011E0008217930714F4581A01C0512C892D897065
:1011F00049F4552039F0B70180E290E00E94640C78
:101200005A94F7CF002329F0B701802F90E00E9475
:10121000640C93FC09C0552039F0B70180E390E0DD
:101220000E94640C5A94F7CF97FE4CC04601D7FE3B
:1012300002C0812C912CC60188199909F301E80F8D
:10124000F91FFE87ED87960124193109388B2F8706
:10125000012F10E01195019511093FEF83169306B8
:1012600029F4B7018EE290E00E94640CC814D904FE
:101270004CF08F8598898815990524F4ED85FE85B5
:10128000818101C080E3F1E08F1A91082D853E85B0
:101290002F5F3F4F3E872D87801691062CF0B701B8
:1012A00090E00E94640CD9CFC814D90441F49A810B
:1012B000963320F4953319F43C8534FF81E3B7016C
:1012C00090E04EC08A81813319F09C859F7E9C8777
:1012D000B70190E00E94640C111105C094FC18C085
:1012E00085E690E017C0B7018EE290E00E94640CA2
:1012F0001E5F82E001E0080FF301E80FF11D80811D
:10130000B70190E00E94640C802F0113F3CFE6CF69
:1013100085E490E0B7010E94640CD7FC06C0C114BC
:10132000D10441F4EC85E4FF05C0D194C194D10807
:101330008DE201C08BE2B70190E00E94640C80E373
:101340002AE0C216D1042CF08F5FFAE0CF1AD10840
:10135000F7CFB70190E00E94640CB701C601C096B8
:101360000E94640C54C1833631F0833779F08335A1
:1013700009F056C020C0560132E0A30EB11CF601A0
:101380008081898301E010E0630112C05601F2E020
:10139000AF0EB11CF601C080D18096FE03C0612F54
:1013A00070E002C06FEF7FEFC6010E94590C8C0104
:1013B000F92DFF7714C0560122E0A20EB11CF601F0
:1013C000C080D18096FE03C0612F70E002C06FEF35
:1013D0007FEFC6010E944E0C8C01F92DF0689F2E04
:1013E000F3FD1AC0852D90E008171907A8F4B7017E
:1013F00080E290E00E94640C5A94F4CFF60197FCCE
:10140000859197FE81916F01B70190E00E94640C75
:1014100051105A94015011090115110579F7F7C0BF
:10142000843611F0893661F5560197FE09C024E033
:10143000A20EB11CF60160817181828193810AC084
:10144000F2E0AF0EB11CF60160817181072E000C35
:10145000880B990BF92DFF769F2E97FF09C0909569
:101460008095709561957F4F8F4F9F4FF0689F2EAD
:101470002AE030E0A3010E94BC0CC82EC6183FC071
:10148000092D853721F40F7E2AE030E01DC0097F49
:101490008F3691F018F4883559F0C3C0803719F0B1
:1014A000883711F0BEC0006104FF09C0046007C0A6
:1014B00094FE08C0066006C028E030E005C020E1C8
:1014C00030E002C020E132E0560107FF09C084E0AD
:1014D000A80EB11CF601608171818281938108C0E0
:1014E000F2E0AF0EB11CF6016081718180E090E006
:1014F000A3010E94BC0CC82EC6180F77902E96FE32
:101500000BC0092D0E7FC11650F494FE0AC092FC48
:1015100008C0092D0E7E05C0DC2C092D03C0DC2C73
:1015200001C0D12E04FF0DC0FE01EC0DF11D808124
:10153000803311F4097E09C002FF06C0D394D3940E
:1015400004C0802F867809F0D39403FD11C000FFFA
:1015500006C01C2DD51480F4150D1D190DC0D51411
:1015600058F4B70180E290E00E94640CD394F7CF66
:10157000D51410F45D1801C0512C04FF10C0B70140
:1015800080E390E00E94640C02FF17C001FD03C0DD
:1015900088E790E002C088E590E0B7010CC0802F9A
:1015A000867859F001FF02C08BE201C080E207FD9E
:1015B0008DE2B70190E00E94640CC11638F4B701C7
:1015C00080E390E00E94640C1150F7CFCA94F301BD
:1015D000EC0DF11D8081B70190E00E94640CC110F8
:1015E000F5CF15C0F4E0F51560F584E0581A93FEC8
:1015F0001FC0011127C02C8523FF2AC004E510E07D
:10160000392D3071932EF8018491811124C0552019
:1016100009F4E4CCB70180E290E00E94640C5A9493
:10162000F6CFF7018681978126C08FEF9FEF23C009
:10163000B70180E290E00E94640C5A945110F8CFF8
:10164000D8CF512CB701802F90E00E94640CD3CFEB
:1016500008E510E0D5CF91108052B70190E00E94CC
:10166000640C0F5F1F4FCFCF23E0251510F483E0EC
:10167000BDCF512CC0CF6096E2E10C945B0B2F9252
:101680003F924F925F926F927F928F929F92AF9212
:10169000BF92CF92DF92EF92FF920F931F93CF935F
:1016A000DF93CDB7DEB7CA1BDB0B0FB6F894DEBFF6
:1016B0000FBECDBF09942A88398848885F846E841C
:1016C0007D848C849B84AA84B984C884DF80EE8066
:1016D000FD800C811B81AA81B981CE0FD11D0FB66F
:1016E000F894DEBF0FBECDBFED010895283008F09D
:1016F00027E03327DA01990F311D87FD91600096AD
:101700006105710539F432602E5F3D9330E32A950F
:10171000E1F708959F3F30F080387105610509F0C9
:101720003C5F3C5F3D93913008F08068911DDF93F2
:10173000CF931F930F93FF92EF92192F987F969557
:10174000E92F96959695E90FFF27EA54FF4F9927C1
:101750003327EE24FF24A701E7010590089407949E
:1017600028F4360FE71EF81E491F511D660F771F1C
:10177000881F991F0694A1F70590079428F4E70E97
:10178000F81E491F561FC11D770F881F991F661F1E
:101790000694A1F70590079428F4F80E491F561FE8
:1017A000C71FD11D880F991F661F771F0694A1F7C9
:1017B0000590079420F4490F561FC71FD81F990F93
:1017C000661F771F881F0694A9F7849110951770DC
:1017D00041F0D695C79557954795F794E7941A9594
:1017E000C1F7ECE5F0E0689415901591359165919D
:1017F000959105907FE27395E118F10A430B560B22
:10180000C90BD009C0F7E10CF11E431F561FC91FB9
:10181000D01D7EF4703311F48A95E6CFE894015020
:1018200030F0080F0AF40027021708F4202F239540
:10183000022F7A3328F079E37D932A95E9F710C0D7
:101840007D932A9589F60694979567953795179510
:101850001794E118F10A430B560BC90BD00998F005
:1018600023957E9173957A3308F070E37C9320136F
:10187000B8F77E9170617D9330F0839571E37D932D
:1018800070E32A95E1F71124EF90FF900F911F91DB
:10189000CF91DF91992787FD90950895FC010590E0
:1018A000615070400110D8F7809590958E0F9F1F62
:1018B0000895FC016150704001900110D8F78095A7
:1018C00090958E0F9F1F08950F931F93CF93DF93D3
:1018D000FB01238121FD03C08FEF9FEF2CC022FF6E
:1018E00016C046815781248135814217530744F43D
:1018F000A081B1819D012F5F3F4F318320838C9365
:10190000268137812F5F3F4F3783268314C08B0199
:10191000EC01FB010084F185E02D0995892BE1F6AE
:10192000D80116968D919C911797019617969C93C6
:101930008E931697CE01DF91CF911F910F9108954D
:10194000AEE0B0E0E6EAFCE00C944D0B8C0186E0E2
:101950008C831A8309838FEF9FE79E838D83CE014B
:1019600001960E94C207EF81F885E00FF11F1082F7
:101970002E96E4E00C94690BFA01AA27283051F165
:10198000203181F1E8946F936E7F6E5F7F4F8F4FB0
:101990009F4FAF4FB1E03ED0B4E03CD0670F781F0F
:1019A000891F9A1FA11D680F791F8A1F911DA11DF4
:1019B0006A0F711D811D911DA11D20D009F468942D
:1019C0003F912AE0269F11243019305D3193DEF6D5
:1019D000CF010895462F4770405D4193B3E00FD08B
:1019E000C9F7F6CF462F4F70405D4A3318F0495D76
:1019F00031FD4052419302D0A9F7EACFB4E0A69559
:101A00009795879577956795BA95C9F7009761057A
:101A1000710508959B01AC010A2E069457954795D0
:101A200037952795BA95C9F7620F731F841F951FC5
:081A3000A01D0895F894FFCFFA
:101A380041543A20002F2D2D2D2D2D2D2D2D2D2DBE
:101A48002D53544152542053595354454D2D2D2D47
:101A58002D2D2D2D2D2D2D2D2D2F0A0041544D4589
:101A68004741200A004652414D4520424144204CFE
:101A7800454E0A0D007654696D657243616C6C625F
:101A880061636B2F6E2F720064636D6F746F7220C9
:101A9800696E69740A0064636D6F746F7220737481
:101AA8006F700A00534552564F3A20696E69740A9E
:021AB80000002C
:00000001FF
